:020000040800F2
:10000000A07F0020F1010008EB5000086F410008BC
:10001000E950000849120008695D0008000000006E
:100020000000000000000000000000009D520008D9
:100030004B120008000000009F020008C154000895
:100040000B0200080B0200080B0200080B0200085C
:100050000B0200080B0200080B0200080B0200084C
:100060000B0200080B0200080B0200080B0200083C
:100070000B0200080B0200080B0200080B0200082C
:100080000B020008000000003D1200080B020008EF
:100090000B0200080B0200080B0200080B0200080C
:1000A0000B0200080B0200080B0200080B020008FC
:1000B0000B0200080B0200080B0200087D4100083B
:1000C0007141000895410008894100080B020008B1
:1000D000D5510008395D00080B020008515D000889
:1000E0000B020008ED5000080B0200080B0200088C
:1000F0000B0200080B0200080B02000800000000C1
:10010000000000000B02000800000000ED51000894
:100110000B020008000000000B0200080B020008A0
:100120000B0200080B0200080B0200080B0200087B
:100130000B02000800000000000000000B02000895
:100140000B0200080B020008000000000000000085
:10015000000000000000000000000000000000009F
:100160000000000000000000000000000B0200087A
:100170000B0200080000000000000000000000006A
:10018000000000000B02000800000000000000005A
:10019000000000000000000000000000000000005F
:1001A00000000000000000000B0200080B02000825
:1001B0000B0200080B0200080B0200080000000000
:1001C000000000000B02000800000000000000001A
:1001D0000B0200080B020008DFF810D000F058FEF8
:1001E00000480047657B0008AFF30080A07F002037
:1001F0000648804706480047FEE7FEE7FEE7FEE7C1
:10020000FEE7FEE7FEE7FEE7FEE7FEE779550008BA
:10021000D901000872B6704762B67047EFF31080DC
:1002200072B6704780F310887047B0FA80F070475C
:1002300072B64EF62250CEF2000040F2FF01C0F23C
:100240000001017029480068006880F3088840F2C6
:100250002000C2F2000040F22401C2F200010A684C
:100260000260106880F30988EFF3148040F0020008
:1002700080F31488BFF36F8FBDE8F00F01BC0FBC93
:10028000BDE8005006BC62B6084719484FF08051DF
:100290000160704716484FF080510160704772B698
:1002A000EFF309801EF0100F08BF20ED108A40F810
:1002B00004ED20E9F00F40F22005C2F200052E689F
:1002C000306040F22401C2F200010A682A6010681E
:1002D000B0E8F00F50F804EB1EF0100F08BFB0ECC0
:1002E000108A80F3098862B67047000008ED00E0CC
:1002F00004ED00E02DE9F05F0546002092469B46A4
:1003000088460646814640241BE02846414647462B
:10031000224600F0B2FB53465A46C01A914110D310
:1003200011461846224600F099FB2D1A67EB01088A
:100330004F4622460120002100F090FB17EB0009F8
:100340004E41201EA4F10104DFDC484631462A4616
:100350004346BDE8F09F2DE9F0410024061B2546E9
:1003600071F1000605DA01240027D0EB070067EBE6
:100370000101161E73F1000605DA0027D2EB070211
:10038000012567EB0303FFF7B5FF86460E461746C8
:100390009C46AC4204D00025D0EB050E65EB01066F
:1003A00024B10020D2EB000760EB030C704631460D
:1003B0003A466346BDE8F08138B5D0E90221491ECE
:1003C00001EB410102EBC1014268C1EB011102EBFB
:1003D00081010268C1EB011102EB8102D0E9043115
:1003E00001EB410103EB81013023A1F5527191FB37
:1003F000F3F4174D6C4302EBC41291FBF3F403FBCF
:10040000141100921A2902DB124B1A4400920C229A
:1004100091FBF2F3104C6343009C04EBC313009375
:1004200091FBF2F302FB13110C4A08E0491E40F263
:10043000A324535C6343009C04EBC3130093002983
:10044000F4DC0146684600F02FFB009838BD000040
:100450003F0C0F008051010067C2030008B700087D
:1004600040EA01039B0703D009E008C9121F08C036
:10047000042AFAD203E011F8013B00F8013B521EB6
:10048000F9D27047D2B201E000F8012B491EFBD22D
:1004900070470022F6E710B513460A46044619468F
:1004A000FFF7F0FF204610BD30B505462A460B4643
:1004B00012F8010B13F8014B08B1A042F8D01CB19F
:1004C000002802D06D1CF1E7284630BD10B5044667
:1004D00004E00B7800F8013B03B1491C521EF8D22E
:1004E000204610BD421C10F8011B0029FBD1801AC8
:1004F000704710B5002200E0521C835C8C5CA34264
:1005000001D1002BF8D1D8B2E1B2401A10BD30B5FC
:1005100005460020034600E05B1C934205D2EC5CDC
:10052000C85C201A01D1002CF6D130BD70B50F4D3A
:1005300000B92868002412E00A4602E09E4203D077
:10054000521C1378002BF9D1DAB2224305D02BB11B
:1005500024B1002100F8011B04E00446401C067889
:10056000002EE9D12860204670BD0000B0000020B8
:100570000FB400B58DB010A909900B9000914FF009
:10058000FF300A9000200C9005480690054807901F
:100590006A4609A80F9900F0E1FA0DB05DF814FB66
:1005A000790B0008970B00082DE9FF5F1D464FF0FF
:1005B000FF3BD5E9014691465F464FF00008A96927
:1005C0007F1C01988847296A824688470028F6D10F
:1005D000BAF1FF3F0CD024F4C064002E19DD600690
:1005E00014D5BAF12B0F09D0BAF12D0F0ED103E0BB
:1005F000584604B0BDE8F09F44F48064A9697F1CAC
:1006000001988847761E8246002E02DDBAF1300F2F
:1006100003D0B9F1000F26D032E0A969761E44F468
:1006200000747F1C019888478246002E05DDBAF1D0
:10063000780F06D0BAF1580F03D0B9F1000F10D0DF
:100640001EE0B9F1000F02D0B9F1100F18D1A9695D
:10065000761E24F400747F1C01988847824610207F
:1006600002E0082000E00A20814609E008FB0908B2
:10067000A969761E44F400747F1C0198884782465D
:10068000002E05DD4946504600F054FA0028EDDA08
:10069000E96901988847A00502D46FF00100A8E736
:1006A000E00725D1600613D5600502D5C8F100002A
:1006B00000E0404629680A1D2A600968220501D524
:1006C000087015E0220701D5088011E008600FE0EE
:1006D0002868011D29600068210502D580F8008086
:1006E00006E0210702D5A0F8008001E0C0F80080F4
:1006F00038467EE72DE9FF5FD2E901A74FF00008F9
:10070000916999461446DDF838B046460198884705
:10071000054659EA0B0005D009E0A169761C01984D
:1007200088470546216A284688470028F5D1681C75
:1007300003D05FEACA7005D015E04FF0FF3004B077
:10074000BDE8F09F2068011D2160D0F800800AE01C
:100750005FEACA7001D108F8015BA169761C7F1EAF
:10076000019888470546002F1ADD681C18D0B9F19A
:10077000000F0DD0E81705EBD060421120F01F00EC
:1007800059F822102A1A012090400142E0D107E0D6
:10079000BBF1000FDCD1216A284688470028D7D05A
:1007A000E16901988847BBF1000F07D1002E05DDF4
:1007B0005FEACA7002D1002188F80010A068B84230
:1007C00003DDBBF1000F03D017B16FF00100B6E7F6
:1007D0003046B4E72DE9FE4F81EA030404F00044FB
:1007E00021F0004100944FF0000B23F0004350EA49
:1007F00001045ED052EA03045BD0C3F30A54C1F390
:100800000A552C44A4F2F3340194A0FB0254C1F322
:10081000130141F48011C3F3130343F4801301FB6C
:10082000024400FB034E840A970A44EA815447EAD3
:100830008357A4FB076802958D0A05FB07854FEADD
:10084000932C04FB0C542705029D4FEA065847EAF7
:100850001637B5EB08056EEB070C870E920E47EACC
:10086000811742EA8312A7FB0201B6EB0B0164EB8E
:1008700000042B0D43EA0C335E1844EB1C50DA469F
:100880005146E7FB0201C5F313044FEA0B3343EA79
:1008900014534FEA0432019C43EA0603A4F10C040A
:1008A0000294009CCDE900B400F0CCF903B0BDE89F
:1008B000F08F00200146F9E72DE9F04D81EA0304AD
:1008C00004F0004B21F0004514464FF0000A23F0DD
:1008D000004150EA050220D054EA01021DD0C5F3C0
:1008E0000A570246C5F31303C1F31300C1F30A56B6
:1008F00040F4801543F48013A7EB0608101BD6467E
:1009000008F2FD3873EB050002D308F1010801E09D
:1009100092185B41B8F1000F03DA00200146BDE8F0
:10092000F08D00204FF48011064684460EE0171B20
:1009300073EB050705D3121B63EB050306434CEA73
:10094000010C49084FEA300092185B4150EA010758
:10095000EDD152EA030012D082EA040083EA0501D5
:10096000084305D0101BAB4106D20122002306E04C
:1009700000224FF0004302E06FF0010253101AEB27
:1009800006004CEB085110EB0A0041EB0B01BDE8EF
:10099000F04D00F048B90EB5C10F80EAE070084490
:1009A000CA07002140F233438DE80E000A460B4689
:1009B00000F048F903B000BD0EB540F2334102919A
:1009C0000021CDE900110A460B4600F03BF903B0C7
:1009D00000BD00F0004230F000400AD0C10D01F52A
:1009E0006071C0F3160042EA0151C208400711438A
:1009F000704700200146704701F0004330B421F0F9
:100A0000004150EA010206D00A0DA2F56072C1F35E
:100A10001301002A02DC30BC00207047440F44EA76
:100A2000C104C100E01830BC00EBC25000F0C4B8F3
:100A300030B50B46014600202022012409E021FAAE
:100A400002F59D4205D303FA02F5491B04FA02F5AB
:100A50002844151EA2F10102F1DC30BD202A04DB7E
:100A6000203A00FA02F1002070479140C2F12003C1
:100A700020FA03F3194390407047202A04DB203A00
:100A800021FA02F00021704721FA02F3D040C2F1AE
:100A9000200291400843194670470000014900F0C8
:100AA00003B80000747B002010B500683C22B0FB46
:100AB000F2F302FB1303B0FBF2F00B60B0FBF2F3B6
:100AC00002FB1303B0FBF2F018224B60B0FBF2F311
:100AD00002FB1303B0FBF2F0021D8B600723B2FB95
:100AE000F3F403FB1422800040F2B55300F66C309F
:100AF0008A61B0FBF3F2B0FBF3F403FB1400443261
:100B000080084A61C8613B2802D3920700D0401C8C
:100B10000022074C13460A61E25C824203D8801A25
:100B20005B1C0B61F8E7401CC860084610BD000064
:100B300014B700083A2800D2303820F02002412AA9
:100B400001D3A2F13700884201D34FF0FF30704744
:100B5000026811441378016018467047D160044957
:100B600051610449116200211161114600F0BAB9C6
:100B7000510B0008D90E0008426842B1016811F813
:100B8000013B23B1521EC0E90012184670470121F3
:100B9000C160881E704742685AB1C368016843B992
:100BA00083688B4205D0491E521CC0E90012002008
:100BB00070474FF0FF3070470029A8BF7047401CB6
:100BC000490008BF20F00100704710B4B0FA80FC63
:100BD00000FA0CF050EA010404BF10BC704749B1A0
:100BE000CCF1200421FA04F411FA0CF118BF012110
:100BF00021430843A3EB0C01CB1D4FEA00614FEAF0
:100C0000102042BF002010BC704700EBC3501044BE
:100C10000029A4BF10BC7047401C490008BF20F049
:100C2000010010BC704710B5141E73F1000408DAFF
:100C3000401C41F1000192185B411A4301D120F0A0
:100C4000010010BD2DE9F04D92469B4611B1B1FA5D
:100C500081F202E0B0FA80F220329046FFF7FEFE09
:100C600004460F4640EA0A0041EA0B0153465A4641
:100C7000084313D0114653EA010019D0C8F14002CD
:100C80005046FFF7FAFE05460E4650465946424684
:100C9000FFF7E4FE084305D0012004E02046394672
:100CA000BDE8F08D0020054346EAE0762C4337434B
:100CB0000A986305E40AA0EB08000022FD0A44EA52
:100CC00047540A3002D500200146E9E70105101912
:100CD0006941DDE9084500196941BDE8F04DA2E729
:100CE0002DE9FE4F804681EA0300C00F0C460090BC
:100CF00021F0004123F00045B8EB0200A94105D2E4
:100D00004046214690461C460B46024623F00040D2
:100D1000104347D0270DC7F30A00C3F30A510290CE
:100D2000401A019040286BDAC3F3130040F4801B93
:100D30000098924620B10023D2EB030A63EB0B0B21
:100D400001985946C0F140025046FFF787FE06461B
:100D50000D4650465946019A00F0ACF810EB0800D9
:100D60006141002487EA115284EAE7731A4340D0B4
:100D7000009A62B3019A012A4FEA075215DC001B60
:100D800061EB02014FF0004202EA0752CDE9004256
:100D9000001C41F5801132462B46FFF753FF03B08C
:100DA000BDE8F08F40462146F9E7001B61EB0201E8
:100DB000001C41F5801300185B412018A2F50017B4
:100DC00047EB030140EAD570B6196D4111E06D089B
:100DD0004FEA360645EAC0754FEA0752001B61EB41
:100DE0000201001C41F5801149084FEA300000194A
:100DF000514132462B4603B0BDE8F04FFFF713BF19
:100E00000098012240000023D0EB020263EBE07364
:100E1000009821464FEAE074B8EB000061EB040152
:100E2000E9E783F000435BE781F0004158E7C1F355
:100E30000A52C1F3130140F2FF3341F480119A4288
:100E400002DA00200146704740F233439A42A2F290
:100E5000334202DC5242FFF710BEFFF7FFBD000035
:100E600030B5041E71F1000404DB4FF00044404231
:100E700064EB0101141E73F1000405DB1C464FF006
:100E80000043524263EB0403994208BF904230BDD5
:100E9000064C074D06E0E06840F0010394E80700C7
:100EA00098471034AC42F6D3FFF79AF9DCBB000840
:100EB000FCBB0008202A06DBCB17203A41FA02F0DF
:100EC00043EAE07306E041FA02F3D040C2F12002A7
:100ED0009140084319467047C0B24FF4F05100F0FA
:100EE00099B900002DE9F34F8BB04FF0000801F1E4
:100EF0000C000C464FF0010B46460DF1080A01901C
:100F00006269012101989047051E2DD0252D2CD016
:100F1000216A8847C0B16269012101989047216A1E
:100F200088470028F7D1411E62690198904700E088
:100F3000761CA1690B988847216A88470028F7D159
:100F4000E1690B988847DBE7A1690B98884707465A
:100F5000A84201D1761CD3E7E1690B9888477F1C32
:100F600002D1B8F1000F6FD047E1002762693D461A
:100F70003946019890472A2804D1626901210198D5
:100F800090470125DFF88892626901210198904716
:100F9000A0F130010A290AD24F45E5DC07EB8701B1
:100FA00000EB4107303FDFD445F01005ECE7E906E0
:100FB00001D46FF000476C280AD04C2814D0682860
:100FC00015D06A280DD074281CD07A281AD01DE0BC
:100FD00062690121019890476C2802D045F0040510
:100FE00014E045F002050DE045F020050AE06269D5
:100FF000012101989047682802D045F0080505E0D6
:1010000045F400656269012101989047C4E90157E0
:1010100065283DD019DC58287AD00CDC452837D01B
:1010200004DC252826D0412831D131E046282FD0B4
:1010300047282CD12CE05B2877D0612828D0632862
:101040007CD0642823D15AE0D1E06F2848D008DC56
:1010500066281DD067281BD0692821D06E2816D19C
:1010600027E0702845D0732868D0752847D07828A5
:101070000DD14DE0A1690B988847054625283FF41E
:1010800069AFE1690B9888476D1C3FF46AAFB4E023
:1010900023466A466FF001000B99AFF300809FE092
:1010A00045F040006060A80723464FF0000236D4A8
:1010B0003EE0E8077FF447AF2068011D216000682B
:1010C000290501D506701BE7290701D5068017E71A
:1010D000A90703D5F117C0E9006111E706600FE722
:1010E00045F040006060A80723464FF0080216D480
:1010F0001EE040F60E0125EA0100606016E045F0B2
:1011000040006060A80723464FF00A0207D40FE0B2
:1011100045F040006060A80708D5234610226FF014
:1011200001000B99AFF300805AE007E0234610223C
:101130006FF001000B99FFF737FA51E04FF000090B
:101140004F464B46632802D05B2807D041E0207908
:10115000C00601D40120A06001273AE062690121A4
:10116000019890475E2805D14FF001096269494610
:1011700001989047216939B900210A46534643F83E
:101180002120491C0829FADBB0B3216969B9C117CC
:1011900000EBD16253110AEB830122F01F02821A85
:1011A00001200B68904003430B60626901210198A4
:1011B00090475D28E8D1B9F1000F09D000205146D1
:1011C00051F82020D24341F82020401C0828F7DBAA
:1011D00002AB224600976FF001000B99FFF78AFAE5
:1011E00000280CDA401C08D1BBF1000F05D04FF0ED
:1011F000FF300DB0BDE8F08FFFE74046F9E7E907A3
:1012000001D108F1010806444FF0000B78E6000018
:10121000CCCCCC0C7F2801D9002208E0064A02EB96
:101220005002C007127800D1120902F00F0201200B
:10123000904008407047000020B70008014800F0C7
:10124000D7BA0000D4000020FEE7704710B506F0C2
:1012500083FB07F03BFC07F04FFB08F0F1FB04F0C9
:101260001FF800F009F800F025F8BDE8104004F080
:1012700091B972B6FEE7000010B500210C4809F0E4
:10128000B8FA0B4800210C3009F0B3FA08480021E5
:10129000183009F0AEFA06480021243009F0A9FA06
:1012A00003480021BDE81040303009F0A2BA000028
:1012B0009C51002010B50C4C00224FF400612046D8
:1012C00000F0E2FE01221146204600F0DDFE012280
:1012D0000421204600F0D8FE20460122BDE810403F
:1012E000082100F0D1BE0000000800487047704798
:1012F00070477047704700002DE9F047044690F8AA
:1013000058009CB00D464FF00008012814D0012071
:1013100084F8580020684FF0A0474FF00009B84209
:101320000ED1284E0096304603F0AAFC8246206873
:1013300003F0A6FC60B10EE002201CB0BDE8F0870F
:10134000E16D41F02001E16584F858900120F4E757
:10135000BAF1000F0AD0E06D40F02000E0654FF0D8
:10136000010800BF84F858904046E6E716482A680E
:1013700040F61F71002A826822F4604215D094F86A
:10138000383042EA43326B681A438260BA68B36805
:1013900002F0010203F001031A43E3D1AB682A68AB
:1013A0001A4383688B431A430AE08260BA68B368C1
:1013B00002F0010203F001031A43D3D182688A4389
:1013C0008260CFE700010050000300502DE9F84F84
:1013D00000270446009790F85800DFF8DC930D468C
:1013E000B846012811D0012684F85860206803F01F
:1013F00043FC60B1E06D40F02000E0655FF0010764
:1014000084F858803846BDE8F88F0220FBE7D5E91C
:1014100000210C23206803EA91131844036B01F0A8
:101420001F014FF01F0C0CFA01FCC2F3846223EA87
:101430000C038A4013430363206803F01DFC8246BB
:10144000206803F015FC5AEA00003CD1AA6829681C
:101450002068B2F1004F37D003F01EFC20684169CC
:1014600021F00041416120686969C268C2F3C1028C
:10147000520091402A69042A31D000EB82002B6887
:10148000026EDFF838C303F0F84302EA0C020B43A4
:101490001A4342F00041016622682869A96902EBFB
:1014A0008000026E22F080720A430266297F206863
:1014B0002A69012910D0002100EB8200026E22F07F
:1014C00000720A4302667DE0002203F0E5FB20681B
:1014D000416941F00041C5E74FF00071ECE70021A0
:1014E00003F0C0FB400320684FF0000172D003F00E
:1014F000B9FB90FAA0F0B0FA80F1286842036ED0F0
:1015000090FAA0F0B0FA80F0814204D10022114696
:10151000206803F0D0FB0121206803F0A3FB400307
:1015200020684FF001015DD003F09CFB90FAA0F021
:10153000B0FA80F12868420359D090FAA0F0B0FACE
:1015400080F0814204D100220121206803F0B3FB26
:101550000221206803F086FB400320684FF002015F
:1015600048D003F07FFB90FAA0F0B0FA80F1286831
:10157000420344D090FAA0F0B0FA80F0814204D146
:1015800000220221206803F096FB0321206803F06B
:1015900069FB400320684FF0030133D003F062FB86
:1015A00090FAA0F0B0FA80F1286842032FD090FAA8
:1015B000A0F0B0FA80F0814204D10022032120681B
:1015C00003F079FB2068816811F0010F22D0ACE0B4
:1015D00000E004E003F046FBC0F384618DE7C0F354
:1015E000846091E703F03EFBC0F38461A2E7C0F39F
:1015F0008460A6E703F036FBC0F38461B7E7C0F36D
:101600008460BBE703F02EFBC0F38461CCE7C0F33A
:101610008460D0E72A7B296850F8B03FC1F3120CF0
:1016200023EA0C0302F0180C654A22FA0CF20A4075
:1016300013430360E968494577D1286841031CD00A
:1016400090FAA0F1B1FA81F1491C01F01F010929BA
:101650004FEA403132D8002912D000BF90FAA0F1F1
:10166000B1FA81F101F1010101F01F0106FA01F661
:1016700009D100BFC0F3846109E0C0F38461E3E7EE
:10168000C0F38461EEE790FAA0F1B1FA81F101F1C3
:10169000010101F01F0146EA816102D1C0F38460BB
:1016A00003E090FAA0F0B0FA80F000F1010000F041
:1016B0001F0000EB400041EA005132E000290ED04B
:1016C00090FAA0F1B1FA81F101F1010101F01F01DD
:1016D00006FA01F606D100BFC0F3846106E0C0F34C
:1016E0008461F1E790FAA0F1B1FA81F101F1010111
:1016F00001F01F0146EA816102D1C0F3846003E07A
:1017000090FAA0F0B0FA80F000F1010000F01F00A4
:101710002C4A00EB400002EB005041EA000141F08E
:101720000071AA68206803F0B7FA27482A680242C5
:101730003FF466AE25488168254B01F0E0719A427E
:1017400002D0244B9A421BD10B0219D42268B2F169
:10175000A04F7FF455AE826841F4000122F0E072A0
:101760000A4382601C481D490068B0FBF1F000EBA1
:101770004000800000E0401E00900028FBD13FE6C2
:10178000174D184BAA4207D1CD0105D422689A42C1
:10179000F5D041F0807109E0134DAA42EFD14A0221
:1017A000EDD422689A42EAD041F48001826822F0A6
:1017B000E0720A43826023E600007F4000F0FF03EE
:1017C000FFFF0700000020FE00000880000300501B
:1017D000000021C31000C0900C000020400D030049
:1017E000000052C700010050000084CB70477047D2
:1017F0002DE9F05F0446006806684568DFF854B2DA
:10180000DBF8080000F01F07B0070ED5A8070CD5BD
:10181000E06DC00603D4E06D40F40060E065204652
:10182000FFF764FD216802200860DFF82CA2700732
:101830004FF0A04801D5680703D4300737D52807F3
:1018400035D5E06DC00603D4E06D40F40070E0656E
:10185000206803F019FA20B32068504501D14246B0
:1018600000E00246824208D03FB1052F05D0092F83
:1018700003D0504503D1414602E0C16801E0014672
:10188000C96889040DD4016809070AD503F0F4F981
:1018900058B3E06D40F01000E065206E40F00100AC
:1018A00020662046FFF7A2FF21680C200860B006E2
:1018B00001D5A80603D4700658D5680656D5E06D44
:1018C000C00603D4E06D40F40050E0652068C16CB0
:1018D00011F4C07F1AD00021894603F0D5F90246E1
:1018E0002068504514D1434613E02068416821F038
:1018F0000C014160E06D20F48070E065E06DC00493
:10190000CFD4E06D40F00100E065CAE70121E3E7D4
:101910000346834208D03FB1062F05D0072F03D0DE
:10192000504503D1414602E0C16801E00146C96863
:10193000B9F1000F04D18B0112D48AB18A040FD4FB
:10194000026852060CD589020AD403F091F9E8B373
:10195000E06D40F01000E065206E40F00100206670
:101960002046FFF7C4FC21686020086030060BD5D4
:10197000280609D5E06D40F48030E065204600F08F
:1019800069F9216880200860F0050CD5E8050AD5C2
:10199000E06D40F40030E0652046FFF7AAFC2168C6
:1019A0004FF480700860B0050CD5A8050AD5E06D2D
:1019B00040F48020E0652046FFF79CFC21684FF44E
:1019C00000700860F0062ED5E80600E008E02AD591
:1019D000E06BD0B1AFB1DBF8080000F4604013E079
:1019E0002068416821F060014160E06D20F4805082
:1019F000E065E06DC005B3D4E06D40F00100E06546
:101A0000AEE72068C068C00750B1E06D40F4806068
:101A1000E065206E40F0020020662046FFF7E7FEFA
:101A2000216810200860700512D5680510D5E06D9A
:101A300040F48040E065206E40F008002066216898
:101A40004FF4806008602046BDE8F05FFFF750BCAF
:101A5000BDE8F09F0003005000010050F8B54FF0C2
:101A6000000504002E46009502D0E06D10B107E09D
:101A70000120F8BD204600F0EFF8266684F8586093
:101A800020688168C1F3407119B18168694A1140C9
:101A9000816020688168C1F3007179B98168664A04
:101AA000114041F080518160644865490068B0FB95
:101AB000F1F000E0401E00900028FBD12068816812
:101AC000C1F3007141B9E16D41F01001E165216E92
:101AD00041F001012166012503F0CEF8E16DC90650
:101AE00000D430B1E06D40F01000E06501252846DB
:101AF000F8BDE06D20F4807040F00200E0652068E1
:101B0000806810F0010F11D14FF0A04080684D495E
:101B100000F00100896801F00101084306D14A483C
:101B20006168826822F47C120A438260E168E06B9B
:101B3000627F0843A16841EA4231084394F82410C7
:101B400040EA0140012904D1218D404A02EB414184
:101B50000843E16A29B101F47871226B014342EA3A
:101B600001002168CA683A4B1A400243CA602068E3
:101B70000169626B21F0406111430161206803F04B
:101B80007BF80646206803F073F830432ED1207F9F
:101B900094F83810800340EA41022068C16844F29A
:101BA000020399431143C16020690028206801693C
:101BB0000AD041F480310161206850F8C01F2269C9
:101BC0006FF30D01114307E021F4803101612068BA
:101BD00050F8C01F6FF30D01016094F84000012818
:101BE0000CD02068016921F00101016160690128C0
:101BF0002068016B21F00F0111D013E0D4E911012D
:101C00000843D4E913121143084321680A6940F2DA
:101C1000FC739A43104340F001000861E6E7226A32
:101C2000521E11430163E06D20F0020040F00100FC
:101C3000E0655CE7C0FFFF5FC0FFFF7F0C00002096
:101C4000400D030000010050000300500000FEFFA3
:101C50000740F0FF7047000010B586B0044614211D
:101C60006846FEF716FC2068B0F1A04F23D1134858
:101C7000C16C41F40051C164C16C01F40051059183
:101C8000C16C41F00101C164C06C694600F0010003
:101C900005900220009003200190002002904FF058
:101CA000904000F005F900220C21122000F0CAFD3E
:101CB000122000F0BAFD06B010BD00000010024076
:101CC00070B590F82520002401212346022A07D070
:101CD0000422C26380F8251080F82430012429E012
:101CE0000268156825F00E0515600268156825F074
:101CF00001051560826C156825F48075156090F8F3
:101D00004420056C02F01F0201FA02F26A60D0E979
:101D100013255560426D32B1156825F48075156044
:101D2000D0E91625556080F8251080F82430816BA5
:101D300001B18847204670BD90F82500704700002B
:101D400070B5044600F0A6F90546601C02D00448B0
:101D50004068044400F09EF9401BA042FAD370BDD5
:101D6000000000202DE9F84F00230126DFF824C1F0
:101D70000F2788E006FA03F414EA01027ED023F06C
:101D800003056544AA46D5F808909D074FEA157EDD
:101D900007FA0EF505EA090B0095B0F1904F05D052
:101DA0003D4DA84205D14FF001081CE04FF000085E
:101DB00019E03A4DA84202D14FF0020813E0384D25
:101DC000A84202D14FF003080DE0364DA84202D1DF
:101DD0004FF0040807E0344DA84202D14FF0050847
:101DE00001E04FF0060808FA0EF8D84524D1DFF8D4
:101DF000BC80D8F8009029EA0209C8F8009008F1E0
:101E00000408D8F8009029EA0209C8F8009008F1FF
:101E10000408D8F8009029EA0209C8F8009008F1EF
:101E20000408D8F800509543C8F80050009ADAF832
:101E300008509543CAF80850D0F800804FEA43098B
:101E4000032202FA09F248EA0208C0F80080DD081D
:101E500000EB8505AA46D5F820804FEA43794FEA82
:101E6000D96907FA09F528EA0508CAF82080C56883
:101E70009543C5604568A543456000E002E084687D
:101E8000944384605B1C31FA03F27FF473AFBDE8C6
:101E9000F88F0000000001400004004800080048DE
:101EA000000C0048001000480014004800040140E5
:101EB0002DE9FC4FDFF8A0A1002301250AF1040B56
:101EC00003244FF00F0C0BF1040EBDE005FA03F6EE
:101ED00032406FD04F68012F05D0022F03D0112F51
:101EE00001D0122F17D1D0F808905F0004FA07F83C
:101EF00029EA08090097D1F80C8008FA07F848EA9F
:101F00000908C0F808804768B7430E79C6F3001681
:101F10009E403E434660C6684FEA430804FA08F70D
:101F2000BE4301978F6807FA08F73743C7604E68CA
:101F3000022E01D0122E13D1DE0800EB8606009689
:101F4000366A5F07FF0E0CFA07F926EA0906D1F890
:101F5000109009FA07F949EA0609009EC6F8209090
:101F60000668019FBE430F7907F0030707FA08F7D9
:101F7000374307604E68F60065D5384E376E47F038
:101F800001073766366E23F0030706F00106009658
:101F9000334E3E44B146B6689F074FEA17780CFAB5
:101FA00008F7BE43B0F1904F05D02E4FB84204D190
:101FB000012717E047E0002714E02B4FB84201D17A
:101FC00002270FE0294FB84201D103270AE0284F2A
:101FD000B84201D1042705E0264FB84201D10527B8
:101FE00000E0062707FA08F73743C9F80870DAF85F
:101FF00000605746D1F8048096435FEAC83800D5A0
:1020000016433E60DBF800605F46D1F804809643DB
:102010005FEA883800D516433E60DEF800607746F8
:10202000D1F8048096435FEAC82800D516433E6085
:10203000094F0C373E68D1F8048096435FEA882840
:1020400000D516433E605B1C0A6832FA03F67FF443
:102050003DAFBDE8FC8F00000004014000100240CD
:10206000000001400004004800080048000C00483F
:102070000010004800140048426921EA02030A40A7
:1020800043EA0241816170470AB181617047816210
:102090007047000001488068704700000000002081
:1020A00090F84120202A24D190F84020012A20D005
:1020B000012280F84020242280F841200268136821
:1020C00023F0010313600268136823F48053136044
:1020D000026813680B43136001680A6842F001024A
:1020E0000A60202180F84110002180F84010084645
:1020F00070470220704790F84120202A22D190F8A2
:102100004020012A1ED0012280F84020242280F89D
:1021100041200268136823F001031360026813680A
:1021200023F4706343EA0121116001680A6842F0F8
:1021300001020A60202180F84110002180F840103F
:1021400008467047022070477047704730B40368F4
:102150009A691968D243D40509D4CC43240606D41D
:10216000446C44F0010444644FF48074DC61530512
:102170000AD4CB431B0607D4436C43F008034364E3
:1021800004684FF48063E36192050AD4C9430906E9
:1021900007D4416C41F00201416402684FF40071C0
:1021A000D161416C11F00B0F02D030BC02F088B845
:1021B00030BC7047026891691268436B002B00D0F5
:1021C000184770477047000070B5040004D094F8B9
:1021D0004100002510B106E0012070BD84F8405098
:1021E000204600F03FFA242084F84100206801686E
:1021F00021F0010101606068216820F070600861D1
:102200002068816821F400418160E0680128A068AD
:1022100007D040F4044021688860E068022803D0B9
:1022200006E040F40040F6E721684FF400604860A3
:1022300020684168114A114341602068C16821F457
:102240000041C160D4E904010843A16940EA0120CA
:102250002168C860D4E90701084321680860206844
:10226000016841F0010101606564202084F84100AB
:10227000256384F84250002070BD000000800002F9
:102280002DE9FC4700260446019690F841001F46C0
:102290009246894620287ED120688069C043000488
:1022A00079D594F84000012875D0012084F84000C9
:1022B000242084F8410066644FF02008E06801287B
:1022C00009D029F4544040F4205021684860FFF7B9
:1022D000E1FE05460DE0314949EA01003049084078
:1022E000F3E7781C05D0FFF7D5FE401BB84219D89C
:1022F000C7B1216888698969C0F34010C1F3001132
:102300000843EED0206880693B46C043C0064FF0CA
:1023100000024FF020012046009517D502F0AFFAD9
:1023200068BB09E084F8418054F8440F40F0200075
:1023300044F80409267022E02168C1F81C8084F862
:10234000418084F840600020BDE8FC8702F097FAE5
:10235000A8B921681020C8612168C1F81C800198C3
:10236000504512D12068416841F4804141603B46AC
:10237000002220212046009502F081FA10B10120B0
:10238000E2E708E02168C1F81C800198401C019038
:10239000504593D3C6E70220D6E700000020000294
:1023A000FF230002704700002DE9FF4F83B0044671
:1023B000DDE9108790F84100DDF848909A46934691
:1023C000202874D15FEA080014D09FB194F840002F
:1023D00001286CD0012084F84000FFF75BFE064620
:1023E000012200901923D103204602F048FA002868
:1023F00071D103E04FF4007060646CE0222084F837
:102400004100402084F8420000256564C4F824801F
:1024100067856563CDE9009653465A462046049980
:1024200002F00EF910B184F8405054E0618D354847
:10243000FF274FF080784FF0007AFF2904D92785D5
:102440003A464346009005E0618D2185009094F85E
:10245000282053462046049902F0E6F94B46002214
:1024600004212046009602F00AFAA0BB2068406AC8
:10247000616A0870606A401C6062208D401E81B2F3
:102480002185608D401E6085608DD8B1D1B94B46E5
:10249000002280212046009602F0F1F9D8B9608D23
:1024A000FF2805D927853A464346009506E026E0F1
:1024B000608D2085009594F8282053462046049985
:1024C00002F0B2F9608D0028C8D132464946204654
:1024D00002F001FA18B1012007B0BDE8F08F2168C1
:1024E0002020C86121684A68074B1A404A6084F876
:1024F000410084F8425084F840500020ECE702206C
:10250000EAE700000024008000E800FE2DE9FF4F0C
:1025100083B00446DDE9108790F84100DDF848906B
:102520009A469346202871D15FEA080014D09FB1E3
:1025300094F84000012869D0012084F84000FFF79A
:10254000A9FD0646012200901923D103204602F07E
:1025500096F900286ED103E04FF40070606469E0E2
:10256000212084F84100402084F842000025656461
:10257000C4F8248067856563CDE9009653465A46C2
:102580002046049902F08EF810B184F8405051E0D2
:10259000608DFF274FF080784FF0007AFF2804D934
:1025A00027853A464346009505E0608D20850095D5
:1025B00094F8282053462046049902F035F9324613
:1025C0004946204602F0ADF9A0BB606A2168007858
:1025D0008862606A401C6062608D401E6085208D4C
:1025E000401E80B22085618DD9B1D0B94B46002202
:1025F00080212046009602F042F9D8B9608DFF286C
:1026000005D927853A464346009506E026E0608DC9
:102610002085009594F8282053462046049902F01E
:1026200003F9608D0028CAD132464946204602F09F
:1026300052F918B1012007B0BDE8F08F20682021C1
:10264000C16120684268064B1A40426084F841101C
:1026500084F8425084F840500020ECE70220EAE77A
:1026600000E800FE2DE9F04186B0044614216846DA
:10267000FDF70FFF364B226812250027354C012647
:102680000421A8069A4234D1E26C42F00102E264CD
:10269000E26C02F001020592E26C42F00202E26496
:1026A000E26C884602F0020205924A038DE8E401DA
:1026B0006946FFF7FDFB60158DE8E1016946264894
:1026C000FFF7F6FBA06D40F40010A065A06D00229E
:1026D00000F40010059008211F2000F0B3F81F201F
:1026E00000F0A3F800220821202000F0ABF8202001
:1026F00029E01A4B9A4228D1E26C42F00102E264CE
:10270000E26C02F001020592CDE903714FF44072D0
:102710008DE864006946FFF7CBFBA06D40F48000B4
:10272000A065A06D002200F4800005900821212002
:1027300000F088F8212000F078F8002208212220FB
:1027400000F080F8222000F070F806B0BDE8F081BB
:1027500000540040001002400004004800580040AF
:102760007047704702488168426811448160704731
:102770000000002010B50024032000F083F80020A2
:1027800000F008F808B1012401E000F025F8204627
:1027900010BD000070B50E4E05460024706898B15B
:1027A0004FF47A71B1FBF0F00A490968B1FBF0F01F
:1027B00001F080F940B9102D06D200222946501EA2
:1027C00000F040F8356000E00124204670BD0000B4
:1027D000000000200C0000200A4882B0016E41F089
:1027E00001010166016E01F001010091816D41F06E
:1027F00080518165806D00F08050009002B000F043
:10280000B1B800000010024000280DDB00F01F02EC
:10281000012191404009800000F1E020C0F88011C2
:10282000BFF34F8FBFF36F8F7047002809DB00F0B5
:102830001F02012191404009800000F1E020C0F812
:1028400000117047F0B40E4B1B680C46C3F3022313
:10285000C3F10705042D00D90425191D072901D24C
:10286000002300E0DB1E012606FA05F1491E214087
:1028700099409E40761E16403143F0BC03F0BABA30
:102880000CED00E0064900F0070208684FF6FF0370
:10289000184040EA0220034A1043086070470000D5
:1028A0000CED00E00000FA052B492C4B0A683221A0
:1028B0004A432B4940B1B0F5007F086829D020F485
:1028C000C06040F480602CE00868C0F3412002281A
:1028D00004D051F8800F20F4807022E0D1F88000FD
:1028E00020F48070C1F88000086820F4C06040F4D3
:1028F00000700860B2FBF3F0401C00E0401E4A6923
:10290000520501D50028F9D1486940050AD50320B0
:102910007047C0F34120022806D051F8800F40F4E0
:102920008070086000207047D1F8800040F480700B
:10293000C1F88000086820F4C06040F400700860AE
:10294000B2FBF3F0401C00E0401E4A695205DBD5A3
:102950000028F9D1D8E700000C00002040420F0009
:10296000007000400248816841F4804181607047F6
:10297000007000402DE9F8430446006800269D4D94
:1029800000035ED5A86D0027C00008D4A86D40F0F4
:102990008050A865A86D012700F080500090DFF8F6
:1029A0005892D9F8001041F48071C9F80010FFF76F
:1029B00071FB804606E000BFFFF76CFBA0EB080050
:1029C00002282BD8D9F80000C005F5D5D5F890001D
:1029D00010F4407014D0216C814211D0D5F89000D1
:1029E000D5F8901020F4407041F48031C5F8901073
:1029F000D5F8901021F48031C5F89010C5F89000FA
:102A0000C00711D0FFF746FB804641F2883907E046
:102A1000FFF740FBA0EB0801494501D903260BE075
:102A2000D5F890008007F3D5D5F89000216C20F4FC
:102A300040700843C5F890001FB1A86D20F0805089
:102A4000A8652078C00707D0D5F88800616820F015
:102A500003000843C5F888002078800707D5D5F81B
:102A60008800A16820F00C000843C5F88800207891
:102A7000400707D5D5F88800E16820F0300008430A
:102A8000C5F888002078000707D5D5F888002169A7
:102A900020F0C0000843C5F888002078800607D5DC
:102AA000D5F88800616920F440600843C5F88800C3
:102AB0002078400607D5D5F88800A16920F4405059
:102AC0000843C5F888002078000607D5D5F88800A7
:102AD000E16920F440400843C5F888002088C0051B
:102AE00007D5D5F88800216A20F440300843C5F89E
:102AF00088002088800507D5D5F88800616A20F411
:102B000040200843C5F88800208840050FD5D5F837
:102B10008800A16A20F440100843C5F88800A06A24
:102B2000B0F5801F03D1E86840F48010E860208889
:102B300000050FD5D5F88800E16A20F4400008436D
:102B4000C5F88800E06AB0F5800F03D1E86840F46A
:102B50008010E8602088C0040FD5D5F88800216B6C
:102B600020F040700843C5F88800206BB0F1807FEA
:102B700003D1E86840F48010E86020884FF00061DD
:102B800080040ED5D5F88800626B20F040601043B9
:102B9000C5F88800606B884203D1E86840F4801073
:102BA000E860208840040ED5D5F88800A26B20F09C
:102BB00040601043C5F88800A06B884203D1E868E4
:102BC00040F48010E860208800040FD5D5F8880014
:102BD000E16B20F040500843C5F88800E06BB0F18D
:102BE000805F03D1E86840F48030E8603046BDE89B
:102BF000F883000000100240007000402DE9F0470B
:102C00000E4605004FF0000725D0DFF8AC81D8F85C
:102C1000000000F00F00B0420CD2D8F8001021F0F4
:102C20000F013143C8F80010D8F8000000F00F0081
:102C3000B04210D12968614CC80741F2883A5AD095
:102C40006868DFF87C91032808D0022820682DD01E
:102C5000400500282CDB0120BDE8F08720688001BA
:102C6000F9D5E06800F00302E068C0F30310401CEF
:102C7000032A19D0534A00BFB2FBF0F0E268C2F356
:102C800006225043E268C2F34162521C5200B0FB7C
:102C9000F2F0484517D9A06810F0F00F0CD0880763
:102CA00011D5A86840B10EE0474AE5E78003D0E7B8
:102CB00000F0B6F8484506D9A06820F0F00040F0D2
:102CC0008000A0608027A068696820F003000843A6
:102CD000A060FFF7DFF9814606E000BFFFF7DAF9F1
:102CE000A0EB090151453AD8A068696800F00C00D2
:102CF000B0EB810FF2D12868810714D5400703D5C6
:102D0000A06840F4E060A0602878000705D5A068BE
:102D100020F4605040F4E060A060A068A96820F052
:102D2000F000084304E0802F03D1A06820F0F000F9
:102D3000A060D8F80010404601F00F01B14216D94A
:102D4000016821F00F0131430160FFF7A3F9074645
:102D500007E000BFFFF79EF9C11B514501D90320D1
:102D60007AE7D8F8000000F00F00B042F2D12878DE
:102D7000400705D5A068E96820F4E0600843A0603A
:102D80002878000706D5A068296920F4605040EA39
:102D9000C100A06000F044F8A1680C4AC1F303111F
:102DA000515C01F01F01C8400949086009480068EA
:102DB000BDE8F047FFF7EEBC0020024000100240E3
:102DC00000B4C4040024F40000127A0060B60008C5
:102DD0000C000020000000200548064900688968B2
:102DE000054AC1F30221515C01F01F01C840704740
:102DF0000C0000200010024070B60008054806498B
:102E000000688968054AC1F3C221515C01F01F01C5
:102E1000C84070470C0000200010024070B6000847
:102E2000184910B58868C0F381021748012A0BD0F1
:102E30008A684310C2F38102022A06D08A68C2F36C
:102E40008102032A03D0002010BD184610BDCA68B5
:102E500002F00304CA68C2F30312521C032C02D00E
:102E6000B0FBF2F001E0B3FBF2F0CA68C968C2F34C
:102E700006225043C1F34161491C4900B0FBF1F007
:102E800010BD0000001002400024F4002DE9F843BA
:102E900004007AD02078FA4DC00747D0A868E968C6
:102EA00000F00C0001F003010C2802D0082817D014
:102EB00001E0032914D06068B0F5803F17D0B0F569
:102EC000A02F286817D020F480302860286820F4CC
:102ED000802028606068E0B1FFF7DCF8064614E067
:102EE0002868800322D560680028D2D01EE02868B8
:102EF00040F48030EDE740F480202860F7E700BF21
:102F0000FFF7C8F8801B642870D828688003F7D5BD
:102F10000CE0FFF7BFF8064605E000BFFFF7BAF880
:102F2000801B6428F0D828688003F7D420788007B5
:102F30004CD5A868E96800F00C0001F003010C28EA
:102F400002D004280DD001E002290AD0E068002850
:102F500028682BD040F480702860FFF79BF8064665
:102F600019E02868400502D5E068002891D068681B
:102F7000217C20F0FE4040EA01606860C1480068A2
:102F8000FFF708FC002800D120E076E1FFF782F887
:102F9000801B0228B8D828684005F7D56868217CCE
:102FA00020F0FE4040EA016068600FE020F480708D
:102FB0002860FFF76FF8064605E000BFFFF76AF8E4
:102FC000801B0228A0D828684005F7D42078000785
:102FD00029D560690028D5F8940013D040F001008D
:102FE000C5F89400FFF756F8064606E090E000BFEB
:102FF000FFF750F8801B022886D8D5F89400800788
:10300000F6D510E020F00100C5F89400FFF742F873
:10301000064604E0FFF73EF8801B022878D8D5F872
:1030200094008007F6D42078400761D5A86D00266B
:10303000C00008D4A86D40F08050A865A86D012696
:1030400000F08050009090480168C90511D40168D3
:10305000804641F480710160FFF71CF8074604E0E8
:10306000FFF718F8C01B022852D8D8F80000C00596
:10307000F6D5A068012815D00528D5F8900016D0FF
:1030800020F00100C5F89000D5F8900020F0040071
:10309000C5F89000A06841F28838B8B1FEF7FAFF91
:1030A00007460EE0D5F8900040F00100F0E740F050
:1030B0000400C5F89000F5E7FEF7ECFFC11B4145A1
:1030C00026D8D5F890008007F6D50CE0FEF7E2FF91
:1030D000074604E0FEF7DEFFC11B414518D8D5F8CE
:1030E00090008007F6D41EB1A86D20F08050A8652E
:1030F0002078800629D5A0690028D5F8980013D03B
:1031000040F00100C5F89800FEF7C4FF064606E04F
:1031100077E000BFFEF7BEFF801B022877D8D5F806
:1031200098008007F6D510E020F00100C5F898005F
:10313000FEF7B0FF064604E0FEF7ACFF801B022856
:1031400065D8D5F898008007F6D4E069F0B3A9688F
:10315000C1F38101032961D00228286820F0807022
:1031600028600BD0E86820F00300E860E868474971
:103170000840E860FEF78EFF04464BE0FEF78AFF4A
:10318000064604E0FEF786FF801B02283FD8286829
:103190008001F7D4F4E908016FF00F0202EB01118E
:1031A0000843218A5204490802EB4151A26841EACE
:1031B00002210843217D4FF07E42490802EB416124
:1031C0000843217B40EAC160E96800E062E0304AE0
:1031D00011400843E860286840F080702860E86883
:1031E00040F08070E860FEF755FF044605E000BF40
:1031F000FEF750FF001B022809D828688001F7D588
:1032000048E004E0FEF746FF001B022802D9032035
:10321000BDE8F88328688001F4D43BE00128F7D0AA
:10322000E868226A00F00301914226D1616A00F049
:10323000F0020901103991421FD1A26A00F4FE4147
:10324000B1EB022F19D194F82C2000F07841B1EBAA
:10325000C26F12D1218E00F4C00249084905A1F5C0
:103260000011914209D194F8341000F0C06049086F
:103270004906A1F1007181420CD00120C8E700008D
:10328000001002400000002000700040FFFFEEFE32
:103290000C809F010020BBE770470000134810B569
:1032A0000078012821D112480168124807F016FB66
:1032B00011480168114807F011FB114801681148D5
:1032C00007F00CFB104804F06FFB00280DD10E48EE
:1032D000016881600D4807F0CFFE0D4807F0CCFE75
:1032E000BDE810400B4807F0C7BE10BD9F0000208E
:1032F00080B600089C51002088B60008A851002024
:1033000090B60008B451002008520020E45100207B
:10331000F0510020FC5100202DE9F04781460F4874
:1033200004680F4EDFF83C80E0074FF001054FF4D2
:10333000003705D03560C8F800704846FFF7AEFF8B
:10334000A00706D502203060C8F800704846FFF795
:10335000A3FF89F82550BDE8F087000054280040FD
:103360005C280040140401400F4810B50B4601686A
:103370000E480140080CD870C1F304245C7001F0C1
:103380003F049C70C1F34231197052B901F0BAFE8A
:10339000D870587801F0B6FE5870987801F0B2FEF7
:1033A0009870002010BD0000042800403FFFFF007F
:1033B000144810B500680B46486012480830006891
:1033C000C0F30E0088600F48083801680E480140BD
:1033D000C1F305401870C1F306245C7001F07F044E
:1033E0009C70890DD97052B901F08CFE1870587814
:1033F00001F088FE5870987801F084FE98700020E3
:1034000010BD0000082800407F7F7F0070B50400D9
:103410004FF001003ED094F8250028B9002084F830
:103420002400204600F03CF8022084F825001A4EC3
:10343000CA20306053203060204601F079FE10BB76
:10344000154D0C3D286815490840286028686168BA
:10345000A269084321691143084328602189E06873
:1034600040EA01400C4914390860204601F086FE0C
:1034700048B9D4E90721114362692B6823F06043FE
:103480001A4311432960FF213160002802D1012134
:1034900084F8251070BD000024280040BFFF8FFB7A
:1034A00010B50068094988420FD1094850F8901FAB
:1034B00041F40041016000220B212920FFF7C2F9ED
:1034C000BDE810402920FFF7B0B910BD002800402A
:1034D000001002402DE9F05F044690F824000B46EE
:1034E000012848D04FF0010B84F824B0022084F862
:1034F00025005948002600684FEA4060D2B30028F2
:1035000000DBDE7098781978DA7840EA0140597863
:10351000090241EA8251084393F8201040EA01650C
:10352000D8695F6805435869DFF82C9105439869AD
:1035300009F10C090743CA21C9F800105321C9F841
:1035400000104549586A4431B0F5807F4248434BEA
:103550004FF40032D0F800C04FF0FF0A28D02CF40E
:10356000085CC0F800C0022008601A60FEF792FDF7
:1035700080464EE002E00220BDE8F09F002800DB1C
:10358000DE70187801F0C7FD0504587801F0C3FD1E
:1035900045EA0025987801F0BEFD0543D87845EA54
:1035A000805593F8200001F0B6FD45EA0065B7E7C5
:1035B0002CF4885CC0F800C0C1F800B01A60FEF7B7
:1035C00069FD804607E000BFFEF764FDA0EB080040
:1035D000B0F57A7F15D820480C380068C007F3D0C2
:1035E0001D4828300560001D07601B48016841F434
:1035F00088511CE0FEF74EFDA0EB0800B0F57A7F85
:1036000007D9C9F800A0032084F8250084F82460B5
:10361000B2E711480C3800688007EBD50E4830300F
:103620000560001D07600C48016841F40851016005
:103630000A481438016841F40031016007480C3829
:10364000016841F400310160C9F800A084F825B098
:1036500084F8246000208FE71828004014040140FB
:103660002DE9F041044690F824000B4601281AD0B9
:10367000012684F82460022084F82500B2B19878ED
:10368000D97840EA014558781978000240EA41307B
:1036900005431B4FCA20386053203860204601F094
:1036A00047FDD8B122E00220BDE8F0815878C1067C
:1036B00003D500F0EF000A305870D87801F02BFDE8
:1036C0000504587801F027FD45EA0025987801F0B7
:1036D00022FD0543187845EA4035DAE709480540F8
:1036E000074820380560204601F048FDFF21396079
:1036F00008B984F82560002184F82410D4E700007C
:10370000242800403FFFFF002DE9F047054690F8D0
:10371000240017460C46012814D04FF0010985F803
:103720002490022085F82500DFF8A480CA21C8F87B
:1037300000105321C8F80010284601F0F9FC0026BB
:1037400018B127E00220BDE8F087214B0C3B186838
:103750004FEA40601FB3002800DBE670A0782178B4
:10376000E27840EA01406178090241EA8251084367
:1037700018490840164924390860186820F4802048
:103780001860D4E903010843196808431860284603
:1037900001F0F4FCFF22C8F80020A0B115E00028D9
:1037A00000DBE670207801F0B6FC0704607801F0D9
:1037B000B2FC47EA0027A07801F0ADFC0743E078AF
:1037C00047EA8050D4E785F8259085F82460BAE769
:1037D000242800407F7F7F0070B50B4D286860F083
:1037E000A0002860FEF756FC04464FF47A7606E007
:1037F000FEF750FC001BB04201D9032070BD2868C1
:103800008006F5D5002070BD0C28004070470000F0
:1038100038B5016804464A688868C043430606D53F
:10382000C30704D1D3435B0601D4E16C05E08307F1
:1038300008D4D3431B0605D4216D01B02046BDE852
:1038400030400847830603D5430601D5C30551D44C
:10385000D3439B064ED443060AD494F85D30032B21
:1038600049D0236E43F004032366CB688B68009332
:10387000830609D4236E43F0010323668B6800930B
:103880000B6823F040030B60C00506D4206E40F0A7
:1038900008002066206880680090206E002829D0EB
:1038A0002068416821F0E0014160012084F85D005A
:1038B000900701D4D00722D02068416821F003018D
:1038C0004160114DA06D40B18563A06DFEF7F8F920
:1038D00018B1206E40F040002066606D002809D0CD
:1038E0008563606DFEF7ECF9002803D0206E40F090
:1038F0004000206638BDC8688868009038BD204602
:10390000FFF784FF38BD0000F951000870B50400CE
:1039100009D0606A002540B125616561A56294F80F
:103920005D0040B10CE0012070BD6068B0F5827FA1
:10393000F4D0E561F2E784F85C50204600F05CF8D2
:10394000022084F85D002068016821F040010160D8
:10395000E1684FF4E062914201D9002001E04FF4A8
:103960008050B1F5706F02D0914200D0A562A1885D
:10397000228901F4827102F404421143227C02F094
:1039800002021143227D02F001021143228B02F454
:1039900000721143227F02F03802114394F8202074
:1039A00002F080021143228D02F40052114322687A
:1039B0001160A169042202EA114194F8242000F464
:1039C000805002F01002114394F8342002F00802F3
:1039D0001143A28902F470621143014320684160DF
:1039E0002068C16921F40061C1612566012084F865
:1039F0005D00002070BD000030B587B00446142182
:103A00006846FCF746FD2468264D0023264902221D
:103A10002648AC421FD18C6D44F480448C658C6D7B
:103A200004F480440594CC6C44F00204CC64C96C6A
:103A300001F002010591A9008DE80E000521CDE9F4
:103A400003216946FEF734FA00220A212420FEF7FA
:103A5000F9FE242021E0164DAC4220D18C6D44F4B7
:103A600000448C658C6D04F400440594CC6C44F0E7
:103A70000204CC64C96C01F00201059138218DE883
:103A80000E000621CDE903216946FEF711FA002256
:103A90000A213320FEF7D6FE3320FEF7C6FE07B01C
:103AA00030BD000000380040001002400004004813
:103AB000003C004010B5401EB0F1807F01D30120D2
:103AC00010BD4FF0E02460610F21601702F092F901
:103AD0000020A06107202061002010BD90F87C101C
:103AE000012918D0012180F87C102421C0F8801011
:103AF00050F8601B0A680B6823F001030B6022F08A
:103B000000510022426050F8603C1960202101629F
:103B100002771046704702207047704770B5044620
:103B200090F87C0001281DD0012084F87C0024201E
:103B3000C4F8800020680568026822F00102026073
:103B40002068826822F060620A438260204601F0A9
:103B500083FD206805602020C4F88000002084F8E0
:103B60007C0070BD022070BD70B5044690F87C00EA
:103B700001281DD0012084F87C002420C4F8800096
:103B800020680568026822F00102026020688268ED
:103B900022F060420A438260204601F05DFD206809
:103BA00005602020C4F88000002084F87C0070BDEF
:103BB000022070BD7047704770B504001BD02420F0
:103BC000C4F880002068016821F0010101602068CC
:103BD000002505602068456020688560204600F06B
:103BE00025F9C4F88850C4F88050C4F8845084F88B
:103BF0007C50002070BD012070BD70472DE9F04160
:103C000003680446D86919689A6840F60F05284287
:103C10004FF0000509D186067ED501F0200602F09E
:103C200080573E4378D0E16E9EE0624E624F164070
:103C30000F40374370D0C70709D0CF0507D50127FC
:103C40001F62D4F8883043F00103C4F8883083073A
:103C50000AD5D30708D0276802233B62D4F88830FE
:103C600043F00403C4F8883043070AD5D30708D0CB
:103C7000276804233B62D4F8883043F00203C4F879
:103C8000883003070CD501F02003334308D02668A1
:103C900008233362D4F8883043F00803C4F888302E
:103CA00003050BD54B0109D526684FF40063336239
:103CB000D4F8883043F02003C4F88830D4F8883032
:103CC000002B34D0800609D501F0200002F080518D
:103CD000084303D0E16E09B120468847D4F8880034
:103CE00021688968490602D410F0280F21D02046A7
:103CF00001F082FD20688168490615D5816821F0B0
:103D000040018160A06F78B12C498163A06FFDF7FD
:103D1000D7FF00280BD000E011E0A06F816B00E01E
:103D20002046BDE8F04108472046FFF766FFBDE8A2
:103D3000F0812046FFF761FFC4F88850F7E7C6021C
:103D400009D5560207D54FF4801018622046BDE809
:103D5000F041FFF730BF060609D501F0800602F4F6
:103D60000002164303D0216F0029D9D1DFE74206B4
:103D70000DD54A060BD51968204621F0400119607F
:103D80002021C4F88010256700F0F0F9CFE7020287
:103D900006D54A0004D52046BDE8F041FFF70ABF2A
:103DA000C001C4D50029C2DA2046BDE8F041FFF7C2
:103DB000B4BE00000100001020010004E357000819
:103DC00010B5040003D0D4F8800010B107E0012042
:103DD00010BD002084F87C00204600F053F8242019
:103DE000C4F880002068016821F0010101602046CC
:103DF00001F014FE0128EBD0A06A10B1204601F0BA
:103E00005DFC2068416821F4904141602068816830
:103E100021F02A0181602068016841F00101016000
:103E20002046BDE8104001F0ADBC000010B5104ABE
:103E300001681048914209D1016E21F48041016668
:103E400030210D48FDF78EFF25200CE00B4A9142F2
:103E50000DD1816D21F4802181654FF440610848C6
:103E6000FDF780FF2720BDE81040FEF7CDBC10BD58
:103E7000003801400010024000080048004800409F
:103E80000004004830B587B0044614216846FCF7AA
:103E900000FB2468274D0021274802230722AC425B
:103EA00020D1046E44F480440466046E04F480441B
:103EB0000594C46C44F00404C464C06C00F00400B5
:103EC000059030200090CDE90131CDE9031269461B
:103ED0001A48FDF7EDFF002209212520FEF7B2FC6C
:103EE000252023E0164DAC4222D1846D44F4802479
:103EF0008465846D04F480240594C46C44F0020449
:103F0000C464C06C00F0020005904FF44060009063
:103F1000CDE90131CDE9031269460A48FDF7C8FF32
:103F2000002209212720FEF78DFC2720FEF77DFCCB
:103F300007B030BD003801400010024000080048C2
:103F4000004800400004004870B5D0F88430202BB1
:103F50006DD1B9B1B2B190F87C30012B67D001239B
:103F600080F87C308165A0F85C20A0F85E200021FC
:103F7000C16683684FF48056FF24B34207D10369BA
:103F800013B11CE0012070BD40F2FF131DE07F253E
:103F90009BB1B3F1805F15D0A0F86010C0F8881015
:103FA0002223C0F8843003689C6844F001049C60BC
:103FB000436EB3F1005F0ED027E0036943B9A0F868
:103FC0006040EBE703691BB13F23A0F86030E5E7F1
:103FD000A0F86050E2E7B0F86830934215D88268E4
:103FE000B24201D1026972B1124AC26680F87C10F5
:103FF00001680A6842F480720A600068816841F0D2
:10400000805181600FE00C4AEFE78268B24201D133
:10401000026952B1094AC26680F87C1000680168E2
:1040200041F490710160002070BD054AF3E7022061
:1040300070BD00007D5900087D5800081D5900081A
:104040001D58000810B500681249134C884209D168
:104050000122611C1148FFF777FF6078BDE810402E
:1040600006F044BB0E49884212D10B490122891C3B
:104070000C48FFF769FF0C4A2078A1781154401CC6
:1040800020700A2904D1094806F0F6FF00202070AC
:1040900010BD000000380140A1000020C80200202F
:1040A0000048004054030020007700209056002074
:1040B0002DE9F8430446D0F880001F4616460D4609
:1040C000202851D1DDB1D6B194F87C0001284BD025
:1040D000012084F87C004FF00008C4F8888021207B
:1040E000C4F880001834FDF7D5FFA6878146E6871F
:1040F00054F8100C183CB0F5805F03D004E00120A8
:10410000BDE8F883206920B12E46002584F87C8024
:1041100010E00026FAE78021204601F0BBFDB8B987
:10412000C6B116F8010B21688862B4F85600401E2B
:10413000A4F85600B4F856004B464FF00002009722
:104140000028E8D14FF04001204601F0A3FD30B136
:104150000320D5E735F8020BC0F30800E3E7202081
:10416000C4F880000020CBE70220C9E77047FEE7D3
:104170000148FDF7EBBF0000400100200148FEF7B9
:1041800019B80000400100200148FDF7DFBF000022
:104190008C0100200148FEF70DB800008C010020C2
:1041A000806A0021826B02B19163C26B02B191639C
:1041B00000F050BB10B50022CC074FF0280306D00A
:1041C00090F84140422233EA040400D0F2228C07E6
:1041D00007D590F8414042F04402A34301D042F099
:1041E000B0020B0401D542F0B802102904D02029F6
:1041F00005D0402906D007E042F0900204E042F0EA
:10420000200201E042F04002006801689143016031
:1042100010BD01688A69D243920701D400228A62E4
:1042200000688169C943C90703D0816941F0010170
:10423000816170472DE9F041044690F84100282142
:10424000814320684FF000054FF0080304D0C3619C
:1042500084F84050BDE8F0818169C1F3004781696D
:10426000FE2202EA11468168C1F30902C168D4F84E
:104270000CE001F0FE014FF4004CBEF1020F17D12B
:104280004FF0060E06F006060EEAD21E76450ED157
:10429000A16C491CA164A16C0229DBD1A564C36196
:1042A00084F8405039462046FDF74FFFD2E70E46CE
:1042B00061462046FFF77EFF84F840503246F1E722
:1042C00070B5044690F84100002584F84250364A03
:1042D000E2626585626C0A43626428281FD029283F
:1042E0001DD02A281BD048F203012046FFF762FFA9
:1042F00094F84100602802D0202084F841006563D2
:10430000206B2A4EA16B19B1112812D0212810D090
:10431000E16BE9B3122824D0222822D03EE0032109
:104320002046FFF747FF282084F8410020486063BB
:10433000E6E720680168490403D5016821F480415B
:104340000160A06BFDF7F8FC012827D0A06B866305
:1043500084F84050A06BFDF7B3FC002823D0A06B7D
:1043600018E020680168090403D5016821F40041C0
:104370000160E06BFDF7E0FC01280FD0E06B866385
:1043800084F84050E06BFDF79BFC00280BD000E068
:1043900004E0E06B816BBDE8704008472046BDE853
:1043A000704000F057BA70BD0000FFFFA141000847
:1043B0000947000870B504461648E06200252563E9
:1043C000202084F8410084F84250C84365634007C8
:1043D00011D42068406A616A0870606A401C60629B
:1043E000208D40B1401E2085608D401E6085606C30
:1043F00040F00400606448F203012046FFF7DAFE53
:1044000021681020C86184F840502046FDF7CAFF9B
:1044100070BD00000000FFFF2DE9F0410268044676
:10442000156890F841000E462027D761212806D054
:10443000292804D0222809D02A2807D00DE048F2E4
:1044400001012046FFF7B6FE212005E048F20201F7
:104450002046FFF7AFFE222020632068416841F428
:104460000041416020684168354A11404160204662
:10447000FFF7CFFEE843410406D42068016821F429
:1044800080410160A06B07E0000409D42068016846
:1044900021F400410160E06B10B100684068608564
:1044A000F04340070FD4206826F00406406A616A92
:1044B0000870606A401C6062208D20B1401E20851B
:1044C000608D401E6085608D18B1606C40F0040006
:1044D0006064002584F842506563606C68B1616C6B
:1044E0002046FFF7EDFE94F84100282815D131460B
:1044F0002046BDE8F041FFF75DBFE06A114EB042D3
:104500000DD0204600F020F8E66284F84170256363
:1045100084F840502046FDF745FFBDE8F08194F84F
:10452000410084F841702228256384F840502046D9
:1045300002D0FEF716F9F0E7FEF712F9EDE70000FA
:1045400000E800FE0000FFFF70B504460068016847
:10455000002584F84250C9434A0403D4016821F479
:10456000804104E0090403D4016821F400410160A2
:1045700094F841102820292911D094F841102A29B3
:104580000CD184F841002220206302212046FFF74D
:1045900011FE84F840502046FEF7E2F870BD84F822
:1045A00041002120206301212046FFF703FE84F80B
:1045B00040502046FEF7D5F870BD00002DE9F041CF
:1045C0000446006890460E468069C043C00633D456
:1045D0000025202720688069C043800615D5701CFF
:1045E000F8D0FDF757FDA0EB0800B04201D8002E2F
:1045F000F0D154F8440F40F0200044F804096770EB
:10460000A57025700120BDE8F08121681020C861E7
:104610002068C7612046FFF7FCFD54F8440B416851
:10462000064A11404160206840F0040044F8200927
:104630006777A5772577E5E70020E4E700E800FE47
:104640002DE9F84304461646DDE9089714489846D4
:10465000DAB200900023204600F0E6F83A464946D8
:10466000204600F05EF9B8B9F5B2B8F1010F08D0F4
:104670002168300A88623A464946204600F051F9DE
:1046800050B9206885624B460022402120460097A1
:1046900000F0F5F8002800D00120BDE8F883000004
:1046A000002000802DE9F843044616461548984638
:1046B000DDE90897DAB2C3020090204600F0B4F8B2
:1046C0003A464946204600F02CF9B8B9F5B2B8F19F
:1046D000010F08D02168300A88623A4649462046D0
:1046E00000F01FF950B9206885624B4600228021F6
:1046F0002046009700F0C3F8002800D00120BDE854
:10470000F8830000002000802DE9F041C56A0446CE
:1047100090F840008846012826D0012084F8400007
:104720006FEA0807B8066FEA020605D4B00603D49C
:1047300041462046FFF770FE3A49F8064FF0807276
:1047400031D4F0062FD4638D102083B12168C86165
:10475000606C40F0040060640DB195425ED1616C04
:104760002046FFF7ADFD59E00220BDE8F08194F846
:104770004120282A02D1B5F1007F04D094F84120CD
:10478000292A05D00CE041462046FFF713FE45E0FC
:104790008D4205D02168C8612046FFF73AFD3AE016
:1047A0002168C8613AE0780715D4700713D4608D8A
:1047B00060B12068406A626A1070606A401C606282
:1047C000208D401E2085608D401E6085608D28BB39
:1047D0008D4220D122E0380706D4300704D4414668
:1047E0002046FFF727FD19E0B80717D4B00715D406
:1047F000608D68B1606A216800788862606A401CD8
:104800006062608D401E6085208D401E208505E021
:10481000954200D015B92046FFF796FE002084F897
:104820004000A2E70000FFFFF0B50568059C68683E
:104830004FF48066064FC1F3090106EA545641EA77
:1048400002413E431943B043214308436860F0BD31
:10485000FF63FF0310B590F841200021602A05D0C6
:10486000016380F84010FDF7ADFC10BD202280F8F8
:104870004120016380F84010FDF766FC10BD2DE972
:10488000F0411D4617460E460446DDF8188008E044
:10489000681C06D0FDF7FEFBA0EB0800A8420BD871
:1048A00055B12068806936EA000012D00020B84275
:1048B000EED00020BDE8F08154F8440F40F0200015
:1048C00044F80409202060700020A07020700120AE
:1048D000F0E70120EBE770B516460D4604460DE003
:1048E000324629462046FFF769FE08B1012070BD17
:1048F000FDF7D0FB801BA84207D835B1206880693E
:10490000C0438006ECD4002070BD54F8440F40F042
:10491000200044F80409202060700020A07020705E
:10492000E4E770B516460D4604460FE032462946C8
:104930002046FFF743FE08B1012070BD681C05D07A
:10494000FDF7A8FB801BA84207D835B12068806915
:10495000C0438007EAD4002070BD54F8440F40F0F3
:10496000200044F80409202060700020A07020700E
:10497000E2E700002DE9FE430D46804600260123B4
:104980006A46202100F070F89DF800100809C1F374
:104990004002C1F38107082802D30624022607E05B
:1049A000401F032803D212B10424012600E0022490
:1049B00001A9404600F04EF8254800EB461000EBF8
:1049C000C706BDF90400D6E900122041A1FB007C16
:1049D000C31702FB00C001FB03014FF4FA70381843
:1049E0004FF47A7741F100013A460023FBF7B3FC1C
:1049F0002880BDF90600D6E900122041A1FB00C8BD
:104A0000C31702FB008001FB030178101CEB0000C0
:104A100041F100013A460023FBF79DFC6880BDF997
:104A20000800D6E900122041A1FB0046C31702FB93
:104A3000006001FB03017810201841F100013A46A3
:104A40000023FBF788FCA8800120BDE8FE8300005E
:104A5000A8B6000810B50A460623282100F004F87D
:104A6000002800D0012010BD3EB564248DE81C0054
:104A70000A4601233B21FDF797FC08B100203EBD0B
:104A800001203EBD38B50C46054601236A4620216B
:104A9000FFF7EAFF00280FD09DF80000012320F067
:104AA000010020438DF800006A462021284600F0CE
:104AB00070F8002800D0012038BD38B50C460546F6
:104AC00001236A462021FFF7CFFF00280FD09DF871
:104AD0000000012320F00C0020438DF800006A46FE
:104AE0002021284600F055F8002800D0012038BDCC
:104AF00038B50C46054601236A462021FFF7B4FF6E
:104B000000280FD09DF80000012320F00200204370
:104B10008DF800006A462021284600F03AF8002867
:104B200000D0012038BD38B50C46054601236A4641
:104B30002121FFF799FF00280FD09DF800000123E5
:104B400020F0020020438DF800006A46212128460B
:104B500000F01FF8002800D0012038BD38B50C4601
:104B6000054601236A462021FFF77EFF00280FD06B
:104B70009DF80000012320F0F00020438DF8000094
:104B80006A462021284600F004F8002800D00120C1
:104B900038BD3EB564248DE81C000A4601233A2145
:104BA000FDF7B4FC08B100203EBD01203EBD000071
:104BB00010B5054C22782270FFF7DCFE012802D0E8
:104BC00007202070002010BD9D00002070B5044615
:104BD0000021FFF757FF054602212046FFF788FF17
:104BE000054004212046FFF768FF0540702120465C
:104BF000FFF7B4FF00EA0501084D012901D00420A8
:104C000009E000212046FFF78EFF10F0010F01D0D0
:104C1000012070BD05202870002070BD9D0000207F
:104C200038B5054664230A223B21FDF729FB0C4CCD
:104C300008B101200EE001236A460F212846FFF744
:104C400013FF012801D0022004E09DF80000432852
:104C500003D003202070002038BD012038BD0000A3
:104C60009D00002000EB8100006E00F0F8407047CE
:104C70008068C0F3C00070478068C0F38000704750
:104C80008068C0F380007047C06810F4406F01D0A6
:104C90000020704701207047042303EAD15310B568
:104CA00018444369C1F3045107248C40A3438A404C
:104CB0001343436110BD00EB8100016E21F0004100
:104CC000114301667047000030B58BB00024089492
:104CD0000994202168460A94FBF7DBFB1C484FF03F
:104CE000A041042501604FF40021C0E90114C46013
:104CF0000461C0E90545047744770121016280F829
:104D00002440C462046380F83840C46380F84040A3
:104D1000FCF7A4FE08B1FCF7ACFA08A90C4808940B
:104D2000FCF7EAFA08B1FCF7A4FA0A48009006205A
:104D3000CDE901047F200594CDE9030569460448C7
:104D4000FCF744FB002801D0FCF793FA0BB030BD10
:104D5000D400002004006008F0B587B01421684634
:104D6000FBF797FB2248C16C41F02001C164C16C84
:104D700001F020010591C16C41F00401C164C16CD6
:104D800001F004010591C16C41F00101C164C16CE5
:104D900001F001010591C16C41F00201C164C06CD8
:104DA000144E00F0020041F60F4405900022214607
:104DB0003046FDF769F94FF0904700222021384630
:104DC000FDF762F90125CDE900450024029469460A
:104DD00030460394FDF76CF820200090CDE9015493
:104DE000694638460394FDF763F807B0F0BD00004C
:104DF0000010024000080048134810B51149016036
:104E00001249416000210122C0E9021201614161A1
:104E10008161C1610162FDF7D7F908B1FCF729FA98
:104E200000210948FDF73CF908B1FCF722FA0021FE
:104E30000548FDF760F9002803D0BDE81040FCF7F5
:104E400018BA10BD0054004040010020BC7D701015
:104E5000134810B511490160124941600021012237
:104E6000C0E90212016141618161C1610162FDF726
:104E7000ABF908B1FCF7FDF900210948FDF710F97D
:104E800008B1FCF7F6F900210548FDF734F90028D0
:104E900003D0BDE81040FCF7ECB910BD005800404D
:104EA0008C010020BC7D701030B591B014210AA88F
:104EB000FBF7EFFA0024282168460F94FBF7E9FA84
:104EC00028482749C0E900147F218160F921C0E901
:104ED000031489074461C0E906410462FEF796FAAB
:104EE00008B1FCF7C6F98DF828408DF829408DF8F7
:104EF0002A400B940D9401220AA91A480E94FEF739
:104F000003FC08B1FCF7B5F901258DF83C508DF88C
:104F10003D508DF83E508DF83F402A460FA911486C
:104F2000FEF79EFB08B1FCF7A4F98DF800408DF860
:104F300001404FF480708DF802400194099005946F
:104F4000069407948DF82050012269460548FEF723
:104F5000C1FA002801D0FCF78CF911B030BD000077
:104F600000280040D8010020124810B51049016007
:104F70004FF48271416000214FF4E062C0E90212F7
:104F80004FF400720161C0E905120822C0E907214F
:104F900007234162C0E90A13C0E90C12FEF7B6FC10
:104FA000002803D0BDE81040FCF763B910BD000035
:104FB0000038004000020020124810B5104901607E
:104FC0004FF48271416000214FF4E062C0E90212A7
:104FD0004FF400720161C0E905120822C0E90721FF
:104FE00007224162C0E90A1201634163FEF78EFCA9
:104FF000002803D0BDE81040FCF73BB910BD00000D
:10500000003C004064020020194810B517490160B7
:105010004FF4E1314160002181600C22C160C0E9A0
:1050200004128161C161016241628162FEF7C8FEC2
:1050300008B1FCF71EF900210D48FEF795FD08B1F7
:10504000FCF717F900210A48FEF768FD08B1FCF7E4
:1050500010F90748FEF742FD08B1FCF70AF9BDE870
:105060001040012203490248FEF76EBF003801409C
:10507000C8020020A2000020194810B5174901609D
:105080004FF4E1314160002181600C22C160C0E930
:1050900004128161C161016241628162FEF790FE8A
:1050A00008B1FCF7E6F800210D48FEF75DFD08B1F8
:1050B000FCF7DFF800210A48FEF730FD08B1FCF7E5
:1050C000D8F80748FEF70AFD08B1FCF7D2F8BDE8AA
:1050D0001040012203490248FEF736BF0048004055
:1050E00054030020A3000020FEE7FEE710B505F002
:1050F0004BFC0348FEF710F9BDE8104005F054BC26
:10510000D8010020010901EB810100F00F0000EB44
:105110004100C0B270470022014602E00A39C9B21C
:10512000521C0A29FAD2100741EA106070470000A9
:105130002DE9F047104C814600252068400618D420
:10514000206840F080002060FCF7A4FF06464FF482
:105150007A78032708E000BFFCF79CFF801B4045DE
:1051600002D9032589F825702068400601D4032D53
:10517000F2D12846BDE8F0870C2800402DE9F04127
:10518000064613480025016821F080010160104C9B
:105190000C3420684FF00307800607D43046FEF732
:1051A0001BFB90B186F8257003250EE0206820F0E7
:1051B000200020603046FEF70FFB10B186F8257006
:1051C0000325206840F0200020602846BDE8F081DB
:1051D0000C28004010B505F0D7FB0348FEF718FB7C
:1051E000BDE8104005F0E0BB000200200148FEF7DA
:1051F0000FBB00006402002010B5806A0021A0F8F7
:105200004610C187FEF702FB10BD000010B56423F5
:105210000A22FDF735F800284FF0010002D00249BC
:105220000870002010BD00009C0000207FB5022502
:1052300003AA0C46CDE90025642102910123002236
:105240009121FDF7B1F820B110480570002004B09D
:1052500070BD9DF80C000006BDF80C0040BA08D5E2
:105260000B49084300EE100AB8EEC00A84ED000AAC
:105270000AE0FBF7A1FB9FED071B53EC112BFBF79B
:10528000A9FAFBF7B9FB20600120E0E79C000020B1
:105290000080FFFF000000000000703F704700002A
:1052A00010B500210E4805F07DFE0D4800210C30A0
:1052B00005F078FE0A480021543005F073FE0848D6
:1052C0000021603005F06EFE054800216C3005F0CD
:1052D00069FE03480021BDE81040783005F062BE49
:1052E00084510020F8B500260D460096417D1446F5
:1052F000202901D13021417530F8111FADF800107F
:1053000081788DF80210017901F00F02417930396E
:1053100062F31F112970C17901F00F02017A30394F
:1053200062F31F116970817A01F00F02C17A30397E
:1053300062F31F11A970417B01F00F02817B3039AC
:1053400062F31F11E970817C01F00F02C17C3039DA
:1053500062F31F112971017CC27C303901EB4103DA
:10536000C3EBC11102EBC101427C642312FB03F2C7
:10537000837C03EB830302EB43021144A1F5E0516C
:105380003C39616101794279303901EB81036FF079
:105390002F0101EB43031A44E260C279037A303AE9
:1053A00002EB820201EB42021A44A260827AC37AC3
:1053B000303A02EB820201EB42021A446260827BC5
:1053C000407B303800EB800001EB4000104420604F
:1053D0002FA16846FBF78DF80127002846D02DA1A4
:1053E0006846FBF786F8022600283DD02AA16846C9
:1053F000FBF77FF80327002838D028A16846FBF781
:1054000078F8042600282FD025A16846FBF771F80C
:10541000052758B323A16846FBF76BF8062618B397
:1054200021A16846FBF765F80727F8B11FA1684678
:10543000FBF75FF80826B8B11DA16846FBF759F8DD
:10544000092798B11BA16846FBF753F888B11AA148
:105450006846FBF74EF880B118A16846FBF749F89B
:1054600078B14FF0FF30F8BD6E7104E06F712661C6
:105470000BE010206871276107E0112068710A2095
:1054800002E0122068710B2020610020F8BD0000AE
:105490004A616E00466562004D61720041707200A3
:1054A0004D6179004A756E004A756C004175670060
:1054B000536570004F6374004E6F7600446563005F
:1054C00010B5FDF74FF905F09DFA002807D005F05B
:1054D0005BFA05F061FFBDE8104005F065BA10BD4C
:1054E00030B5A5B038216846FAF7D3FF14211FA8BC
:1054F000FAF7CFFF44210EA8FAF7CBFF4FF400755F
:105500002846FDF7D1F909200090E801019001201B
:105510000324CDE908400221059010200791CDE930
:105520000A010C9168460D91FDF7B0FC08B172B606
:10553000FEE70F20CDE91F040024219422940121CD
:105540001FA82394FDF75AFB08B172B6FEE709487D
:10555000CDE90E04119414944FF000501594CDE948
:105560001D050EA8FDF706FA002801D072B6FEE769
:1055700025B030BDC58008000548016841F47001C0
:10558000016003494FF000608039086070470000F7
:1055900088ED00E00348002141600160C160816046
:1055A000704700000852002070B54369642403F27C
:1055B0006C7393FBF4F204FB12350A2293FBF4F6AE
:1055C00004FB163393FBF2F495FBF2F502FB143364
:1055D00005F00F0565F31F130B7103695B1C93FB4B
:1055E000F2F493FBF2F502FB153304F00F0464F3BD
:1055F0001F134B71C36893FBF2F493FBF2F502FBAC
:10560000153304F00F0464F31F130B70836893FBCE
:10561000F2F493FBF2F502FB153304F00F0464F38C
:105620001F134B70436893FBF2F493FBF2F502FBFC
:10563000153304F00F0464F31F138B70006890FBA4
:10564000F2F390FBF2F402FB140003F00F0363F398
:105650001F10C87070BD00003FB514A1D1E9002132
:10566000CDE9002113A2D2E90012CDE90212416E68
:10567000B9B1026891689268C1F34261520F1DF896
:105680000240E50002ACA25CB5FBF2F2A0F86A2091
:105690001DF80120615CD200B2FBF1F1A0F86810A6
:1056A0003FBD0121A0F86A10F8E7000001010103E5
:1056B00007010000080402040801010190F8281005
:1056C000C90706D001684A68C36A22F400321A4347
:1056D0004A6090F82810890706D501684A68036B6C
:1056E00022F480321A434A6090F82810490706D500
:1056F00001684A68436B22F480221A434A6090F89A
:105700002810090706D501684A68836B22F4004215
:105710001A434A6090F82810C90606D501688A68BD
:10572000C36B22F480521A438A6090F828108906CD
:1057300006D501688A68036C22F400521A438A6015
:1057400090F82810490611D501684A68436C22F484
:1057500080121A434A60416CB1F5801F06D101687E
:105760004A68836C22F4C0021A434A6090F82810F9
:10577000090606D501684A68C06C22F4002202437B
:105780004A607047F8B500260446C0F88860FCF708
:1057900081FC0546206800686FF07E47000708D549
:1057A0002B4600224FF400112046009700F072FAB9
:1057B00060B92068006840070AD52B4600224FF4E4
:1057C00080012046009700F065FA08B10320F8BD7B
:1057D0002020C4F88000C4F8840084F87C60002095
:1057E000F8BD10B5806A0021A0F85E10A0F8561030
:1057F000FEF703FA10BD000001680A6822F49072F7
:105800000A6001688A68044B1A408A602021C0F847
:1058100084100021C1667047FEFFFFEF10B5B0F89D
:105820006020D0F884300168222B04D0886940F0D1
:105830000800886110BD496A836D11401980816D2F
:10584000891C8165B0F85E10491EA0F85E10B0F8A2
:105850005E100029EED101680A6822F490720A6095
:1058600001688A6822F001028A602021C0F8841051
:105870000021C166FEF7E6FB10BD000070B50446CE
:10588000B0F86060D0F88400222805D020688169D3
:1058900041F00801816170BDB4F8685023E02068D0
:1058A000406AA16D30400880A06D801CA065B4F8EE
:1058B0005E00401EA4F85E00B4F85E0088B920685F
:1058C000016821F48071016020688168114A1140EB
:1058D00081602020C4F884000020E0662046FEF7A6
:1058E000B1FB6D1EADB2002DD9D1B4F85E00002819
:1058F000D1D0B4F868108142CDD92068816821F0F8
:10590000805181600448E0662068016841F0200110
:10591000016070BDFEFFFFEF1D58000810B5B0F824
:105920006020D0F884300168222B04D0886940F0D0
:105930000800886110BD496A1140826D1170816D47
:10594000491C8165B0F85E10491EA0F85E10B0F8E1
:105950005E100029EED101680A6822F490720A6094
:1059600001688A6822F001028A602021C0F8841050
:105970000021C166FEF766FB10BD000070B504464D
:10598000B0F86060D0F88400222805D020688169D2
:1059900041F00801816170BDB4F8685023E02068CF
:1059A000406AA16D30400870A06D401CA065B4F83D
:1059B0005E00401EA4F85E00B4F85E0088B920685E
:1059C000016821F48071016020688168114A1140EA
:1059D00081602020C4F884000020E0662046FEF7A5
:1059E00031FB6D1EADB2002DD9D1B4F85E00002898
:1059F000D1D0B4F868108142CDD92068816821F0F7
:105A0000805181600448E0662068016841F020010F
:105A1000016070BDFEFFFFEF1D5900082DE9F04148
:105A20000446026880682169E369084361690025CA
:105A300019430843616EDFF830C2014310688B4B95
:105A400018400843106020684168E26821F4405122
:105A5000114341602168A069614501D0226A104369
:105A60008A68834B1A4002438A602068C16A626A6E
:105A700021F00F011143C1627E4923687E488B42A9
:105A80000DD1D0F8880010F0030006D0012855D0C1
:105A9000022842D003283FD152E001203DE077495F
:105AA0008B420BD1D0F8880010F00C0035D00428C0
:105AB00033D0082840D00C282ED141E070498B42C9
:105AC0000BD1D0F8880010F0300026D0102835D047
:105AD000202831D030281FD132E06A498B420BD1C7
